{
  "_format": "hh3-artifact-1",
  "contractName": "MockUSDT",
  "sourceName": "contracts/MoclUSDT.sol",
  "abi": [
    {
      "inputs": [],
      "stateMutability": "nonpayable",
      "type": "constructor"
    },
    {
      "inputs": [
        {
          "internalType": "address",
          "name": "spender",
          "type": "address"
        },
        {
          "internalType": "uint256",
          "name": "allowance",
          "type": "uint256"
        },
        {
          "internalType": "uint256",
          "name": "needed",
          "type": "uint256"
        }
      ],
      "name": "ERC20InsufficientAllowance",
      "type": "error"
    },
    {
      "inputs": [
        {
          "internalType": "address",
          "name": "sender",
          "type": "address"
        },
        {
          "internalType": "uint256",
          "name": "balance",
          "type": "uint256"
        },
        {
          "internalType": "uint256",
          "name": "needed",
          "type": "uint256"
        }
      ],
      "name": "ERC20InsufficientBalance",
      "type": "error"
    },
    {
      "inputs": [
        {
          "internalType": "address",
          "name": "approver",
          "type": "address"
        }
      ],
      "name": "ERC20InvalidApprover",
      "type": "error"
    },
    {
      "inputs": [
        {
          "internalType": "address",
          "name": "receiver",
          "type": "address"
        }
      ],
      "name": "ERC20InvalidReceiver",
      "type": "error"
    },
    {
      "inputs": [
        {
          "internalType": "address",
          "name": "sender",
          "type": "address"
        }
      ],
      "name": "ERC20InvalidSender",
      "type": "error"
    },
    {
      "inputs": [
        {
          "internalType": "address",
          "name": "spender",
          "type": "address"
        }
      ],
      "name": "ERC20InvalidSpender",
      "type": "error"
    },
    {
      "inputs": [
        {
          "internalType": "address",
          "name": "owner",
          "type": "address"
        }
      ],
      "name": "OwnableInvalidOwner",
      "type": "error"
    },
    {
      "inputs": [
        {
          "internalType": "address",
          "name": "account",
          "type": "address"
        }
      ],
      "name": "OwnableUnauthorizedAccount",
      "type": "error"
    },
    {
      "anonymous": false,
      "inputs": [
        {
          "indexed": true,
          "internalType": "address",
          "name": "owner",
          "type": "address"
        },
        {
          "indexed": true,
          "internalType": "address",
          "name": "spender",
          "type": "address"
        },
        {
          "indexed": false,
          "internalType": "uint256",
          "name": "value",
          "type": "uint256"
        }
      ],
      "name": "Approval",
      "type": "event"
    },
    {
      "anonymous": false,
      "inputs": [
        {
          "indexed": true,
          "internalType": "address",
          "name": "previousOwner",
          "type": "address"
        },
        {
          "indexed": true,
          "internalType": "address",
          "name": "newOwner",
          "type": "address"
        }
      ],
      "name": "OwnershipTransferred",
      "type": "event"
    },
    {
      "anonymous": false,
      "inputs": [
        {
          "indexed": true,
          "internalType": "address",
          "name": "from",
          "type": "address"
        },
        {
          "indexed": true,
          "internalType": "address",
          "name": "to",
          "type": "address"
        },
        {
          "indexed": false,
          "internalType": "uint256",
          "name": "value",
          "type": "uint256"
        }
      ],
      "name": "Transfer",
      "type": "event"
    },
    {
      "inputs": [
        {
          "internalType": "address",
          "name": "owner",
          "type": "address"
        },
        {
          "internalType": "address",
          "name": "spender",
          "type": "address"
        }
      ],
      "name": "allowance",
      "outputs": [
        {
          "internalType": "uint256",
          "name": "",
          "type": "uint256"
        }
      ],
      "stateMutability": "view",
      "type": "function"
    },
    {
      "inputs": [
        {
          "internalType": "address",
          "name": "spender",
          "type": "address"
        },
        {
          "internalType": "uint256",
          "name": "value",
          "type": "uint256"
        }
      ],
      "name": "approve",
      "outputs": [
        {
          "internalType": "bool",
          "name": "",
          "type": "bool"
        }
      ],
      "stateMutability": "nonpayable",
      "type": "function"
    },
    {
      "inputs": [
        {
          "internalType": "address",
          "name": "account",
          "type": "address"
        }
      ],
      "name": "balanceOf",
      "outputs": [
        {
          "internalType": "uint256",
          "name": "",
          "type": "uint256"
        }
      ],
      "stateMutability": "view",
      "type": "function"
    },
    {
      "inputs": [],
      "name": "decimals",
      "outputs": [
        {
          "internalType": "uint8",
          "name": "",
          "type": "uint8"
        }
      ],
      "stateMutability": "view",
      "type": "function"
    },
    {
      "inputs": [
        {
          "internalType": "address",
          "name": "to",
          "type": "address"
        },
        {
          "internalType": "uint256",
          "name": "amount",
          "type": "uint256"
        }
      ],
      "name": "mint",
      "outputs": [],
      "stateMutability": "nonpayable",
      "type": "function"
    },
    {
      "inputs": [],
      "name": "name",
      "outputs": [
        {
          "internalType": "string",
          "name": "",
          "type": "string"
        }
      ],
      "stateMutability": "view",
      "type": "function"
    },
    {
      "inputs": [],
      "name": "owner",
      "outputs": [
        {
          "internalType": "address",
          "name": "",
          "type": "address"
        }
      ],
      "stateMutability": "view",
      "type": "function"
    },
    {
      "inputs": [],
      "name": "renounceOwnership",
      "outputs": [],
      "stateMutability": "nonpayable",
      "type": "function"
    },
    {
      "inputs": [],
      "name": "symbol",
      "outputs": [
        {
          "internalType": "string",
          "name": "",
          "type": "string"
        }
      ],
      "stateMutability": "view",
      "type": "function"
    },
    {
      "inputs": [],
      "name": "totalSupply",
      "outputs": [
        {
          "internalType": "uint256",
          "name": "",
          "type": "uint256"
        }
      ],
      "stateMutability": "view",
      "type": "function"
    },
    {
      "inputs": [
        {
          "internalType": "address",
          "name": "to",
          "type": "address"
        },
        {
          "internalType": "uint256",
          "name": "value",
          "type": "uint256"
        }
      ],
      "name": "transfer",
      "outputs": [
        {
          "internalType": "bool",
          "name": "",
          "type": "bool"
        }
      ],
      "stateMutability": "nonpayable",
      "type": "function"
    },
    {
      "inputs": [
        {
          "internalType": "address",
          "name": "to",
          "type": "address"
        },
        {
          "internalType": "uint256",
          "name": "amount",
          "type": "uint256"
        }
      ],
      "name": "transferAndApprove",
      "outputs": [],
      "stateMutability": "nonpayable",
      "type": "function"
    },
    {
      "inputs": [
        {
          "internalType": "address",
          "name": "from",
          "type": "address"
        },
        {
          "internalType": "address",
          "name": "to",
          "type": "address"
        },
        {
          "internalType": "uint256",
          "name": "value",
          "type": "uint256"
        }
      ],
      "name": "transferFrom",
      "outputs": [
        {
          "internalType": "bool",
          "name": "",
          "type": "bool"
        }
      ],
      "stateMutability": "nonpayable",
      "type": "function"
    },
    {
      "inputs": [
        {
          "internalType": "address",
          "name": "newOwner",
          "type": "address"
        }
      ],
      "name": "transferOwnership",
      "outputs": [],
      "stateMutability": "nonpayable",
      "type": "function"
    }
  ],
  "bytecode": "0x608060405234801561000f575f5ffd5b503360405180604001604052806009815260200168135bd8dac81554d11560ba1b815250604051806040016040528060048152602001631554d11560e21b815250816003908161005f9190610315565b50600461006c8282610315565b5050506001600160a01b03811661009d57604051631e4fbdf760e01b81525f60048201526024015b60405180910390fd5b6100a6816100ce565b506100c9336100b76012600a6104c8565b6100c490620f42406104dd565b61011f565b610507565b600580546001600160a01b038381166001600160a01b0319831681179093556040519116919082907f8be0079c531659141344cd1fd0a4f28419497f9722a3daafe3b4186f6b6457e0905f90a35050565b6001600160a01b0382166101485760405163ec442f0560e01b81525f6004820152602401610094565b6101535f8383610157565b5050565b6001600160a01b038316610181578060025f82825461017691906104f4565b909155506101f19050565b6001600160a01b0383165f90815260208190526040902054818110156101d35760405163391434e360e21b81526001600160a01b03851660048201526024810182905260448101839052606401610094565b6001600160a01b0384165f9081526020819052604090209082900390555b6001600160a01b03821661020d5760028054829003905561022b565b6001600160a01b0382165f9081526020819052604090208054820190555b816001600160a01b0316836001600160a01b03167fddf252ad1be2c89b69c2b068fc378daa952ba7f163c4a11628f55a4df523b3ef8360405161027091815260200190565b60405180910390a3505050565b634e487b7160e01b5f52604160045260245ffd5b600181811c908216806102a557607f821691505b6020821081036102c357634e487b7160e01b5f52602260045260245ffd5b50919050565b601f82111561031057805f5260205f20601f840160051c810160208510156102ee5750805b601f840160051c820191505b8181101561030d575f81556001016102fa565b50505b505050565b81516001600160401b0381111561032e5761032e61027d565b6103428161033c8454610291565b846102c9565b6020601f821160018114610374575f831561035d5750848201515b5f19600385901b1c1916600184901b17845561030d565b5f84815260208120601f198516915b828110156103a35787850151825560209485019460019092019101610383565b50848210156103c057868401515f19600387901b60f8161c191681555b50505050600190811b01905550565b634e487b7160e01b5f52601160045260245ffd5b6001815b600184111561041e57808504811115610402576104026103cf565b600184161561041057908102905b60019390931c9280026103e7565b935093915050565b5f82610434575060016104c2565b8161044057505f6104c2565b816001811461045657600281146104605761047c565b60019150506104c2565b60ff841115610471576104716103cf565b50506001821b6104c2565b5060208310610133831016604e8410600b841016171561049f575081810a6104c2565b6104ab5f1984846103e3565b805f19048211156104be576104be6103cf565b0290505b92915050565b5f6104d660ff841683610426565b9392505050565b80820281158282048414176104c2576104c26103cf565b808201808211156104c2576104c26103cf565b6108cd806105145f395ff3fe608060405234801561000f575f5ffd5b50600436106100e5575f3560e01c8063715018a61161008857806395d89b411161006357806395d89b41146101d1578063a9059cbb146101d9578063dd62ed3e146101ec578063f2fde38b14610224575f5ffd5b8063715018a61461019b5780638da5cb5b146101a357806393af77c3146101be575f5ffd5b806323b872dd116100c357806323b872dd1461013c578063313ce5671461014f57806340c10f191461015e57806370a0823114610173575f5ffd5b806306fdde03146100e9578063095ea7b31461010757806318160ddd1461012a575b5f5ffd5b6100f1610237565b6040516100fe919061073d565b60405180910390f35b61011a61011536600461078d565b6102c7565b60405190151581526020016100fe565b6002545b6040519081526020016100fe565b61011a61014a3660046107b5565b6102e0565b604051601281526020016100fe565b61017161016c36600461078d565b610303565b005b61012e6101813660046107ef565b6001600160a01b03165f9081526020819052604090205490565b610171610319565b6005546040516001600160a01b0390911681526020016100fe565b6101716101cc36600461078d565b61032c565b6100f161034a565b61011a6101e736600461078d565b610359565b61012e6101fa36600461080f565b6001600160a01b039182165f90815260016020908152604080832093909416825291909152205490565b6101716102323660046107ef565b610366565b60606003805461024690610840565b80601f016020809104026020016040519081016040528092919081815260200182805461027290610840565b80156102bd5780601f10610294576101008083540402835291602001916102bd565b820191905f5260205f20905b8154815290600101906020018083116102a057829003601f168201915b5050505050905090565b5f336102d48185856103a8565b60019150505b92915050565b5f336102ed8582856103ba565b6102f8858585610436565b506001949350505050565b61030b610493565b61031582826104c0565b5050565b610321610493565b61032a5f6104f4565b565b610334610493565b61033e8282610359565b506103158233836103a8565b60606004805461024690610840565b5f336102d4818585610436565b61036e610493565b6001600160a01b03811661039c57604051631e4fbdf760e01b81525f60048201526024015b60405180910390fd5b6103a5816104f4565b50565b6103b58383836001610545565b505050565b6001600160a01b038381165f908152600160209081526040808320938616835292905220545f19811015610430578181101561042257604051637dc7a0d960e11b81526001600160a01b03841660048201526024810182905260448101839052606401610393565b61043084848484035f610545565b50505050565b6001600160a01b03831661045f57604051634b637e8f60e11b81525f6004820152602401610393565b6001600160a01b0382166104885760405163ec442f0560e01b81525f6004820152602401610393565b6103b5838383610617565b6005546001600160a01b0316331461032a5760405163118cdaa760e01b8152336004820152602401610393565b6001600160a01b0382166104e95760405163ec442f0560e01b81525f6004820152602401610393565b6103155f8383610617565b600580546001600160a01b038381166001600160a01b0319831681179093556040519116919082907f8be0079c531659141344cd1fd0a4f28419497f9722a3daafe3b4186f6b6457e0905f90a35050565b6001600160a01b03841661056e5760405163e602df0560e01b81525f6004820152602401610393565b6001600160a01b03831661059757604051634a1406b160e11b81525f6004820152602401610393565b6001600160a01b038085165f908152600160209081526040808320938716835292905220829055801561043057826001600160a01b0316846001600160a01b03167f8c5be1e5ebec7d5bd14f71427d1e84f3dd0314c0f7b2291e5b200ac8c7c3b9258460405161060991815260200190565b60405180910390a350505050565b6001600160a01b038316610641578060025f8282546106369190610878565b909155506106b19050565b6001600160a01b0383165f90815260208190526040902054818110156106935760405163391434e360e21b81526001600160a01b03851660048201526024810182905260448101839052606401610393565b6001600160a01b0384165f9081526020819052604090209082900390555b6001600160a01b0382166106cd576002805482900390556106eb565b6001600160a01b0382165f9081526020819052604090208054820190555b816001600160a01b0316836001600160a01b03167fddf252ad1be2c89b69c2b068fc378daa952ba7f163c4a11628f55a4df523b3ef8360405161073091815260200190565b60405180910390a3505050565b602081525f82518060208401528060208501604085015e5f604082850101526040601f19601f83011684010191505092915050565b80356001600160a01b0381168114610788575f5ffd5b919050565b5f5f6040838503121561079e575f5ffd5b6107a783610772565b946020939093013593505050565b5f5f5f606084860312156107c7575f5ffd5b6107d084610772565b92506107de60208501610772565b929592945050506040919091013590565b5f602082840312156107ff575f5ffd5b61080882610772565b9392505050565b5f5f60408385031215610820575f5ffd5b61082983610772565b915061083760208401610772565b90509250929050565b600181811c9082168061085457607f821691505b60208210810361087257634e487b7160e01b5f52602260045260245ffd5b50919050565b808201808211156102da57634e487b7160e01b5f52601160045260245ffdfea2646970667358221220b81654cc93bae2ef6a3330a7a2c857c64e69c9d60e76e49a7085b60e312a6d7864736f6c634300081c0033",
  "linkReferences": {},
  "deployedLinkReferences": {},
  "immutableReferences": {},
  "inputSourceName": "project/contracts/MoclUSDT.sol",
  "buildInfoId": "solc-0_8_28-2066e02fd3c85bb75e61469278da52aa5c740cd7"
}