{
  "_format": "hh3-artifact-1",
  "contractName": "MockSwap",
  "sourceName": "contracts/MoclUSDT.sol",
  "abi": [
    {
      "inputs": [
        {
          "internalType": "address",
          "name": "_usdt",
          "type": "address"
        }
      ],
      "stateMutability": "nonpayable",
      "type": "constructor"
    },
    {
      "inputs": [
        {
          "internalType": "address",
          "name": "owner",
          "type": "address"
        }
      ],
      "name": "OwnableInvalidOwner",
      "type": "error"
    },
    {
      "inputs": [
        {
          "internalType": "address",
          "name": "account",
          "type": "address"
        }
      ],
      "name": "OwnableUnauthorizedAccount",
      "type": "error"
    },
    {
      "anonymous": false,
      "inputs": [
        {
          "indexed": true,
          "internalType": "address",
          "name": "previousOwner",
          "type": "address"
        },
        {
          "indexed": true,
          "internalType": "address",
          "name": "newOwner",
          "type": "address"
        }
      ],
      "name": "OwnershipTransferred",
      "type": "event"
    },
    {
      "inputs": [
        {
          "internalType": "uint256",
          "name": "amount",
          "type": "uint256"
        }
      ],
      "name": "addLiquidity",
      "outputs": [],
      "stateMutability": "nonpayable",
      "type": "function"
    },
    {
      "inputs": [
        {
          "internalType": "uint256",
          "name": "amount",
          "type": "uint256"
        }
      ],
      "name": "depositUSDT",
      "outputs": [],
      "stateMutability": "nonpayable",
      "type": "function"
    },
    {
      "inputs": [],
      "name": "owner",
      "outputs": [
        {
          "internalType": "address",
          "name": "",
          "type": "address"
        }
      ],
      "stateMutability": "view",
      "type": "function"
    },
    {
      "inputs": [],
      "name": "rate",
      "outputs": [
        {
          "internalType": "uint256",
          "name": "",
          "type": "uint256"
        }
      ],
      "stateMutability": "view",
      "type": "function"
    },
    {
      "inputs": [],
      "name": "renounceOwnership",
      "outputs": [],
      "stateMutability": "nonpayable",
      "type": "function"
    },
    {
      "inputs": [],
      "name": "swapETHForUSDT",
      "outputs": [],
      "stateMutability": "payable",
      "type": "function"
    },
    {
      "inputs": [
        {
          "internalType": "address",
          "name": "newOwner",
          "type": "address"
        }
      ],
      "name": "transferOwnership",
      "outputs": [],
      "stateMutability": "nonpayable",
      "type": "function"
    },
    {
      "inputs": [],
      "name": "usdt",
      "outputs": [
        {
          "internalType": "contract MockUSDT",
          "name": "",
          "type": "address"
        }
      ],
      "stateMutability": "view",
      "type": "function"
    },
    {
      "inputs": [
        {
          "internalType": "uint256",
          "name": "amount",
          "type": "uint256"
        }
      ],
      "name": "withdrawETH",
      "outputs": [],
      "stateMutability": "nonpayable",
      "type": "function"
    },
    {
      "inputs": [
        {
          "internalType": "uint256",
          "name": "amount",
          "type": "uint256"
        }
      ],
      "name": "withdrawUSDT",
      "outputs": [],
      "stateMutability": "nonpayable",
      "type": "function"
    }
  ],
  "bytecode": "0x60806040526103e8600255348015610015575f5ffd5b506040516106e53803806106e5833981016040819052610034916100d7565b338061005957604051631e4fbdf760e01b81525f600482015260240160405180910390fd5b61006281610088565b50600180546001600160a01b0319166001600160a01b0392909216919091179055610104565b5f80546001600160a01b038381166001600160a01b0319831681178455604051919092169283917f8be0079c531659141344cd1fd0a4f28419497f9722a3daafe3b4186f6b6457e09190a35050565b5f602082840312156100e7575f5ffd5b81516001600160a01b03811681146100fd575f5ffd5b9392505050565b6105d4806101115f395ff3fe60806040526004361061008f575f3560e01c80638da5cb5b116100575780638da5cb5b14610146578063d85aa3ae14610162578063e7c80f171461016a578063f14210a614610189578063f2fde38b146101a8575f5ffd5b80632c4e722e146100935780632f48ab7d146100bb5780633ea521ef146100f257806351c6590a14610113578063715018a614610132575b5f5ffd5b34801561009e575f5ffd5b506100a860025481565b6040519081526020015b60405180910390f35b3480156100c6575f5ffd5b506001546100da906001600160a01b031681565b6040516001600160a01b0390911681526020016100b2565b3480156100fd575f5ffd5b5061011161010c3660046104fb565b6101c7565b005b34801561011e575f5ffd5b5061011161012d3660046104fb565b610264565b34801561013d575f5ffd5b506101116102a1565b348015610151575f5ffd5b505f546001600160a01b03166100da565b6101116102b4565b348015610175575f5ffd5b506101116101843660046104fb565b6103fd565b348015610194575f5ffd5b506101116101a33660046104fb565b610405565b3480156101b3575f5ffd5b506101116101c2366004610512565b610443565b6101cf610480565b6001546001600160a01b031663a9059cbb6101f15f546001600160a01b031690565b6040516001600160e01b031960e084901b1681526001600160a01b039091166004820152602481018490526044015b6020604051808303815f875af115801561023c573d5f5f3e3d5ffd5b505050506040513d601f19601f82011682018060405250810190610260919061053f565b5050565b6001546040516323b872dd60e01b8152336004820152306024820152604481018390526001600160a01b03909116906323b872dd90606401610220565b6102a9610480565b6102b25f6104ac565b565b5f34116102fa5760405162461bcd60e51b815260206004820152600f60248201526e139bc8115512081c1c9bdd9a591959608a1b60448201526064015b60405180910390fd5b5f60025434610309919061055e565b6001546040516370a0823160e01b815230600482015291925082916001600160a01b03909116906370a0823190602401602060405180830381865afa158015610354573d5f5f3e3d5ffd5b505050506040513d601f19601f820116820180604052508101906103789190610587565b10156103c65760405162461bcd60e51b815260206004820152601960248201527f496e73756666696369656e7420555344542062616c616e63650000000000000060448201526064016102f1565b60015460405163a9059cbb60e01b8152336004820152602481018390526001600160a01b039091169063a9059cbb90604401610220565b610264610480565b61040d610480565b5f80546040516001600160a01b039091169183156108fc02918491818181858888f19350505050158015610260573d5f5f3e3d5ffd5b61044b610480565b6001600160a01b03811661047457604051631e4fbdf760e01b81525f60048201526024016102f1565b61047d816104ac565b50565b5f546001600160a01b031633146102b25760405163118cdaa760e01b81523360048201526024016102f1565b5f80546001600160a01b038381166001600160a01b0319831681178455604051919092169283917f8be0079c531659141344cd1fd0a4f28419497f9722a3daafe3b4186f6b6457e09190a35050565b5f6020828403121561050b575f5ffd5b5035919050565b5f60208284031215610522575f5ffd5b81356001600160a01b0381168114610538575f5ffd5b9392505050565b5f6020828403121561054f575f5ffd5b81518015158114610538575f5ffd5b808202811582820484141761058157634e487b7160e01b5f52601160045260245ffd5b92915050565b5f60208284031215610597575f5ffd5b505191905056fea26469706673582212202cea3257f2b0513d53903da77b65928b07a3d8afb3f29f29b9e0ac114a19de3764736f6c634300081c0033",
  "linkReferences": {},
  "deployedLinkReferences": {},
  "immutableReferences": {},
  "inputSourceName": "project/contracts/MoclUSDT.sol",
  "buildInfoId": "solc-0_8_28-2066e02fd3c85bb75e61469278da52aa5c740cd7"
}