{
  "_format": "hh3-artifact-1",
  "contractName": "RedPacked",
  "sourceName": "contracts/Red.sol",
  "abi": [
    {
      "inputs": [
        {
          "internalType": "uint256",
          "name": "_totalCount",
          "type": "uint256"
        },
        {
          "internalType": "bool",
          "name": "_isEqual",
          "type": "bool"
        }
      ],
      "stateMutability": "nonpayable",
      "type": "constructor"
    },
    {
      "anonymous": false,
      "inputs": [
        {
          "indexed": true,
          "internalType": "address",
          "name": "_from",
          "type": "address"
        },
        {
          "indexed": true,
          "internalType": "address",
          "name": "_to",
          "type": "address"
        },
        {
          "indexed": false,
          "internalType": "uint256",
          "name": "_value",
          "type": "uint256"
        }
      ],
      "name": "ClearRedPacked",
      "type": "event"
    },
    {
      "anonymous": false,
      "inputs": [
        {
          "indexed": true,
          "internalType": "address",
          "name": "_from",
          "type": "address"
        },
        {
          "indexed": true,
          "internalType": "address",
          "name": "_to",
          "type": "address"
        },
        {
          "indexed": false,
          "internalType": "uint256",
          "name": "_value",
          "type": "uint256"
        }
      ],
      "name": "Deposit",
      "type": "event"
    },
    {
      "anonymous": false,
      "inputs": [
        {
          "indexed": true,
          "internalType": "address",
          "name": "_from",
          "type": "address"
        },
        {
          "indexed": true,
          "internalType": "address",
          "name": "_to",
          "type": "address"
        },
        {
          "indexed": false,
          "internalType": "uint256",
          "name": "_value",
          "type": "uint256"
        }
      ],
      "name": "GetRedPacked",
      "type": "event"
    },
    {
      "inputs": [],
      "name": "clearRedPacked",
      "outputs": [],
      "stateMutability": "nonpayable",
      "type": "function"
    },
    {
      "inputs": [],
      "name": "deposit",
      "outputs": [],
      "stateMutability": "payable",
      "type": "function"
    },
    {
      "inputs": [],
      "name": "getRedPacked",
      "outputs": [],
      "stateMutability": "nonpayable",
      "type": "function"
    },
    {
      "inputs": [],
      "name": "getUser",
      "outputs": [
        {
          "components": [
            {
              "internalType": "address",
              "name": "addr",
              "type": "address"
            },
            {
              "internalType": "uint256",
              "name": "amount",
              "type": "uint256"
            },
            {
              "internalType": "uint256",
              "name": "time",
              "type": "uint256"
            }
          ],
          "internalType": "struct User[]",
          "name": "u",
          "type": "tuple[]"
        }
      ],
      "stateMutability": "view",
      "type": "function"
    },
    {
      "inputs": [],
      "name": "isEqual",
      "outputs": [
        {
          "internalType": "bool",
          "name": "",
          "type": "bool"
        }
      ],
      "stateMutability": "view",
      "type": "function"
    },
    {
      "inputs": [],
      "name": "owner",
      "outputs": [
        {
          "internalType": "address",
          "name": "",
          "type": "address"
        }
      ],
      "stateMutability": "view",
      "type": "function"
    },
    {
      "inputs": [],
      "name": "totalBalance",
      "outputs": [
        {
          "internalType": "uint256",
          "name": "",
          "type": "uint256"
        }
      ],
      "stateMutability": "view",
      "type": "function"
    },
    {
      "inputs": [],
      "name": "totalCount",
      "outputs": [
        {
          "internalType": "uint256",
          "name": "",
          "type": "uint256"
        }
      ],
      "stateMutability": "view",
      "type": "function"
    }
  ],
  "bytecode": "0x608060405234801561000f575f5ffd5b506040516112cf3803806112cf83398181016040528101906100319190610145565b5f8211610073576040517f08c379a000000000000000000000000000000000000000000000000000000000815260040161006a906101dd565b60405180910390fd5b816002819055508060035f6101000a81548160ff021916908315150217905550335f5f6101000a81548173ffffffffffffffffffffffffffffffffffffffff021916908373ffffffffffffffffffffffffffffffffffffffff16021790555050506101fb565b5f5ffd5b5f819050919050565b6100ef816100dd565b81146100f9575f5ffd5b50565b5f8151905061010a816100e6565b92915050565b5f8115159050919050565b61012481610110565b811461012e575f5ffd5b50565b5f8151905061013f8161011b565b92915050565b5f5f6040838503121561015b5761015a6100d9565b5b5f610168858286016100fc565b925050602061017985828601610131565b9150509250929050565b5f82825260208201905092915050565b7f746f74616c436f756e742063616e206e6f7420626520656d70747900000000005f82015250565b5f6101c7601b83610183565b91506101d282610193565b602082019050919050565b5f6020820190508181035f8301526101f4816101bb565b9050919050565b6110c7806102085f395ff3fe60806040526004361061007a575f3560e01c8063acbe84521161004d578063acbe845214610112578063ad7a672f1461013c578063d0e30db014610166578063e1693031146101705761007a565b806334eafb111461007e57806335c65aa5146100a8578063832880e7146100be5780638da5cb5b146100e8575b5f5ffd5b348015610089575f5ffd5b50610092610186565b60405161009f9190610aa6565b60405180910390f35b3480156100b3575f5ffd5b506100bc61018c565b005b3480156100c9575f5ffd5b506100d261067a565b6040516100df9190610bf5565b60405180910390f35b3480156100f3575f5ffd5b506100fc61073e565b6040516101099190610c24565b60405180910390f35b34801561011d575f5ffd5b50610126610762565b6040516101339190610c57565b60405180910390f35b348015610147575f5ffd5b50610150610774565b60405161015d9190610aa6565b60405180910390f35b61016e61077a565b005b34801561017b575f5ffd5b506101846108c9565b005b60025481565b5f600254116101d0576040517f08c379a00000000000000000000000000000000000000000000000000000000081526004016101c790610cca565b60405180910390fd5b5f4711610212576040517f08c379a000000000000000000000000000000000000000000000000000000000815260040161020990610cca565b60405180910390fd5b5f60045f3373ffffffffffffffffffffffffffffffffffffffff1673ffffffffffffffffffffffffffffffffffffffff1681526020019081526020015f206001015411156102ec576201518060045f3373ffffffffffffffffffffffffffffffffffffffff1673ffffffffffffffffffffffffffffffffffffffff1681526020019081526020015f2060020154426102aa9190610d15565b10156102eb576040517f08c379a00000000000000000000000000000000000000000000000000000000081526004016102e290610db8565b60405180910390fd5b5b5f60405180606001604052803373ffffffffffffffffffffffffffffffffffffffff1681526020015f8152602001428152509050600160025403610397575f4790503373ffffffffffffffffffffffffffffffffffffffff166108fc8290811502906040515f60405180830381858888f19350505050158015610371573d5f5f3e3d5ffd5b50808260200181815250505f6001819055505f6002819055505f600181905550506104f2565b60035f9054906101000a900460ff1615610441575f600254476103ba9190610e03565b90503373ffffffffffffffffffffffffffffffffffffffff166108fc8290811502906040515f60405180830381858888f193505050501580156103ff573d5f5f3e3d5ffd5b50808260200181815250508060015f82825461041b9190610d15565b92505081905550600160025f8282546104349190610d15565b92505081905550506104f1565b5f60016002546104519190610d15565b4761045c9190610e03565b610464610a50565b61046e9190610e33565b9050808260200181815250503373ffffffffffffffffffffffffffffffffffffffff166108fc8290811502906040515f60405180830381858888f193505050501580156104bd573d5f5f3e3d5ffd5b508060015f8282546104cf9190610d15565b92505081905550600160025f8282546104e89190610d15565b92505081905550505b5b3373ffffffffffffffffffffffffffffffffffffffff163073ffffffffffffffffffffffffffffffffffffffff167f6ab7ec9dcfba1d48b98270c62f08215ee90113d2b37875fe6732db499f2d9cf783602001516040516105539190610aa6565b60405180910390a38060045f3373ffffffffffffffffffffffffffffffffffffffff1673ffffffffffffffffffffffffffffffffffffffff1681526020019081526020015f205f820151815f015f6101000a81548173ffffffffffffffffffffffffffffffffffffffff021916908373ffffffffffffffffffffffffffffffffffffffff1602179055506020820151816001015560408201518160020155905050600581908060018154018082558091505060019003905f5260205f2090600302015f909190919091505f820151815f015f6101000a81548173ffffffffffffffffffffffffffffffffffffffff021916908373ffffffffffffffffffffffffffffffffffffffff1602179055506020820151816001015560408201518160020155505050565b60606005805480602002602001604051908101604052809291908181526020015f905b82821015610735578382905f5260205f2090600302016040518060600160405290815f82015f9054906101000a900473ffffffffffffffffffffffffffffffffffffffff1673ffffffffffffffffffffffffffffffffffffffff1673ffffffffffffffffffffffffffffffffffffffff168152602001600182015481526020016002820154815250508152602001906001019061069d565b50505050905090565b5f5f9054906101000a900473ffffffffffffffffffffffffffffffffffffffff1681565b60035f9054906101000a900460ff1681565b60015481565b5f5f9054906101000a900473ffffffffffffffffffffffffffffffffffffffff1673ffffffffffffffffffffffffffffffffffffffff163373ffffffffffffffffffffffffffffffffffffffff1614610808576040517f08c379a00000000000000000000000000000000000000000000000000000000081526004016107ff90610ead565b60405180910390fd5b5f341161084a576040517f08c379a000000000000000000000000000000000000000000000000000000000815260040161084190610f15565b60405180910390fd5b3460015f82825461085b9190610f33565b925050819055503073ffffffffffffffffffffffffffffffffffffffff163373ffffffffffffffffffffffffffffffffffffffff167f5548c837ab068cf56a2c2479df0882a4922fd203edb7517321831d95078c5f62346040516108bf9190610aa6565b60405180910390a3565b5f5f9054906101000a900473ffffffffffffffffffffffffffffffffffffffff1673ffffffffffffffffffffffffffffffffffffffff163373ffffffffffffffffffffffffffffffffffffffff1614610957576040517f08c379a000000000000000000000000000000000000000000000000000000000815260040161094e90610fb0565b60405180910390fd5b5f5f9054906101000a900473ffffffffffffffffffffffffffffffffffffffff1673ffffffffffffffffffffffffffffffffffffffff166108fc4790811502906040515f60405180830381858888f193505050501580156109ba573d5f5f3e3d5ffd5b505f6001819055505f6002819055505f5f9054906101000a900473ffffffffffffffffffffffffffffffffffffffff1673ffffffffffffffffffffffffffffffffffffffff163073ffffffffffffffffffffffffffffffffffffffff167fc2280b8cf1fe80da92cb6569ab230f55c813a7fc9c8698fcb024e0ded6dd4ed247604051610a469190610aa6565b60405180910390a3565b5f5f4260015460025441604051602001610a6d9493929190611044565b604051602081830303815290604052805190602001205f1c90508091505090565b5f819050919050565b610aa081610a8e565b82525050565b5f602082019050610ab95f830184610a97565b92915050565b5f81519050919050565b5f82825260208201905092915050565b5f819050602082019050919050565b5f73ffffffffffffffffffffffffffffffffffffffff82169050919050565b5f610b1182610ae8565b9050919050565b610b2181610b07565b82525050565b610b3081610a8e565b82525050565b606082015f820151610b4a5f850182610b18565b506020820151610b5d6020850182610b27565b506040820151610b706040850182610b27565b50505050565b5f610b818383610b36565b60608301905092915050565b5f602082019050919050565b5f610ba382610abf565b610bad8185610ac9565b9350610bb883610ad9565b805f5b83811015610be8578151610bcf8882610b76565b9750610bda83610b8d565b925050600181019050610bbb565b5085935050505092915050565b5f6020820190508181035f830152610c0d8184610b99565b905092915050565b610c1e81610b07565b82525050565b5f602082019050610c375f830184610c15565b92915050565b5f8115159050919050565b610c5181610c3d565b82525050565b5f602082019050610c6a5f830184610c48565b92915050565b5f82825260208201905092915050565b7f47616d65206f76657200000000000000000000000000000000000000000000005f82015250565b5f610cb4600983610c70565b9150610cbf82610c80565b602082019050919050565b5f6020820190508181035f830152610ce181610ca8565b9050919050565b7f4e487b71000000000000000000000000000000000000000000000000000000005f52601160045260245ffd5b5f610d1f82610a8e565b9150610d2a83610a8e565b9250828203905081811115610d4257610d41610ce8565b5b92915050565b7f596f752063616e206f6e6c7920636c61696d206f6e63652065766572792032345f8201527f20686f7572730000000000000000000000000000000000000000000000000000602082015250565b5f610da2602683610c70565b9150610dad82610d48565b604082019050919050565b5f6020820190508181035f830152610dcf81610d96565b9050919050565b7f4e487b71000000000000000000000000000000000000000000000000000000005f52601260045260245ffd5b5f610e0d82610a8e565b9150610e1883610a8e565b925082610e2857610e27610dd6565b5b828204905092915050565b5f610e3d82610a8e565b9150610e4883610a8e565b925082610e5857610e57610dd6565b5b828206905092915050565b7f6f6e6c79206f776e65722063616e206465706f736974000000000000000000005f82015250565b5f610e97601683610c70565b9150610ea282610e63565b602082019050919050565b5f6020820190508181035f830152610ec481610e8b565b9050919050565b7f76616c7565206d757374206265203e20300000000000000000000000000000005f82015250565b5f610eff601183610c70565b9150610f0a82610ecb565b602082019050919050565b5f6020820190508181035f830152610f2c81610ef3565b9050919050565b5f610f3d82610a8e565b9150610f4883610a8e565b9250828201905080821115610f6057610f5f610ce8565b5b92915050565b7f6f6e6c79206f776e65722063616e20636c656172207265645061636b656400005f82015250565b5f610f9a601e83610c70565b9150610fa582610f66565b602082019050919050565b5f6020820190508181035f830152610fc781610f8e565b9050919050565b5f819050919050565b610fe8610fe382610a8e565b610fce565b82525050565b5f610ff882610ae8565b9050919050565b5f8160601b9050919050565b5f61101582610fff565b9050919050565b5f6110268261100b565b9050919050565b61103e61103982610fee565b61101c565b82525050565b5f61104f8287610fd7565b60208201915061105f8286610fd7565b60208201915061106f8285610fd7565b60208201915061107f828461102d565b6014820191508190509594505050505056fea2646970667358221220cc1842ce9de5130ebe64174cb284bf370483a405c72cc92a0a08b670d76bb97864736f6c634300081c0033",
  "linkReferences": {},
  "deployedLinkReferences": {},
  "immutableReferences": {},
  "inputSourceName": "project/contracts/Red.sol",
  "buildInfoId": "solc-0_8_28-4ff118beb6f30316328b30cff3d86b9e908dc2bc"
}