{
  "_format": "hh3-artifact-1",
  "contractName": "TTSToken",
  "sourceName": "contracts/RealTTS.sol",
  "abi": [
    {
      "inputs": [],
      "stateMutability": "nonpayable",
      "type": "constructor"
    },
    {
      "inputs": [
        {
          "internalType": "address",
          "name": "spender",
          "type": "address"
        },
        {
          "internalType": "uint256",
          "name": "allowance",
          "type": "uint256"
        },
        {
          "internalType": "uint256",
          "name": "needed",
          "type": "uint256"
        }
      ],
      "name": "ERC20InsufficientAllowance",
      "type": "error"
    },
    {
      "inputs": [
        {
          "internalType": "address",
          "name": "sender",
          "type": "address"
        },
        {
          "internalType": "uint256",
          "name": "balance",
          "type": "uint256"
        },
        {
          "internalType": "uint256",
          "name": "needed",
          "type": "uint256"
        }
      ],
      "name": "ERC20InsufficientBalance",
      "type": "error"
    },
    {
      "inputs": [
        {
          "internalType": "address",
          "name": "approver",
          "type": "address"
        }
      ],
      "name": "ERC20InvalidApprover",
      "type": "error"
    },
    {
      "inputs": [
        {
          "internalType": "address",
          "name": "receiver",
          "type": "address"
        }
      ],
      "name": "ERC20InvalidReceiver",
      "type": "error"
    },
    {
      "inputs": [
        {
          "internalType": "address",
          "name": "sender",
          "type": "address"
        }
      ],
      "name": "ERC20InvalidSender",
      "type": "error"
    },
    {
      "inputs": [
        {
          "internalType": "address",
          "name": "spender",
          "type": "address"
        }
      ],
      "name": "ERC20InvalidSpender",
      "type": "error"
    },
    {
      "inputs": [
        {
          "internalType": "address",
          "name": "owner",
          "type": "address"
        }
      ],
      "name": "OwnableInvalidOwner",
      "type": "error"
    },
    {
      "inputs": [
        {
          "internalType": "address",
          "name": "account",
          "type": "address"
        }
      ],
      "name": "OwnableUnauthorizedAccount",
      "type": "error"
    },
    {
      "anonymous": false,
      "inputs": [
        {
          "indexed": true,
          "internalType": "address",
          "name": "owner",
          "type": "address"
        },
        {
          "indexed": true,
          "internalType": "address",
          "name": "spender",
          "type": "address"
        },
        {
          "indexed": false,
          "internalType": "uint256",
          "name": "value",
          "type": "uint256"
        }
      ],
      "name": "Approval",
      "type": "event"
    },
    {
      "anonymous": false,
      "inputs": [
        {
          "indexed": false,
          "internalType": "uint256",
          "name": "value",
          "type": "uint256"
        }
      ],
      "name": "Burn",
      "type": "event"
    },
    {
      "anonymous": false,
      "inputs": [
        {
          "indexed": true,
          "internalType": "address",
          "name": "to",
          "type": "address"
        },
        {
          "indexed": false,
          "internalType": "uint256",
          "name": "value",
          "type": "uint256"
        }
      ],
      "name": "Mint",
      "type": "event"
    },
    {
      "anonymous": false,
      "inputs": [
        {
          "indexed": true,
          "internalType": "address",
          "name": "previousOwner",
          "type": "address"
        },
        {
          "indexed": true,
          "internalType": "address",
          "name": "newOwner",
          "type": "address"
        }
      ],
      "name": "OwnershipTransferred",
      "type": "event"
    },
    {
      "anonymous": false,
      "inputs": [
        {
          "indexed": true,
          "internalType": "address",
          "name": "buyer",
          "type": "address"
        },
        {
          "indexed": false,
          "internalType": "uint256",
          "name": "ethAmount",
          "type": "uint256"
        },
        {
          "indexed": false,
          "internalType": "uint256",
          "name": "tokenAmount",
          "type": "uint256"
        }
      ],
      "name": "TokenPurchased",
      "type": "event"
    },
    {
      "anonymous": false,
      "inputs": [
        {
          "indexed": true,
          "internalType": "address",
          "name": "seller",
          "type": "address"
        },
        {
          "indexed": false,
          "internalType": "uint256",
          "name": "tokenAmount",
          "type": "uint256"
        },
        {
          "indexed": false,
          "internalType": "uint256",
          "name": "ethAmount",
          "type": "uint256"
        }
      ],
      "name": "TokenSold",
      "type": "event"
    },
    {
      "anonymous": false,
      "inputs": [
        {
          "indexed": true,
          "internalType": "address",
          "name": "from",
          "type": "address"
        },
        {
          "indexed": true,
          "internalType": "address",
          "name": "to",
          "type": "address"
        },
        {
          "indexed": false,
          "internalType": "uint256",
          "name": "value",
          "type": "uint256"
        }
      ],
      "name": "Transfer",
      "type": "event"
    },
    {
      "stateMutability": "payable",
      "type": "fallback"
    },
    {
      "inputs": [],
      "name": "EXCHANGE_RATE",
      "outputs": [
        {
          "internalType": "uint256",
          "name": "",
          "type": "uint256"
        }
      ],
      "stateMutability": "view",
      "type": "function"
    },
    {
      "inputs": [],
      "name": "INITIAL_MINT",
      "outputs": [
        {
          "internalType": "uint256",
          "name": "",
          "type": "uint256"
        }
      ],
      "stateMutability": "view",
      "type": "function"
    },
    {
      "inputs": [],
      "name": "OWNER_INITIAL_BALANCE",
      "outputs": [
        {
          "internalType": "uint256",
          "name": "",
          "type": "uint256"
        }
      ],
      "stateMutability": "view",
      "type": "function"
    },
    {
      "inputs": [
        {
          "internalType": "address",
          "name": "owner",
          "type": "address"
        },
        {
          "internalType": "address",
          "name": "spender",
          "type": "address"
        }
      ],
      "name": "allowance",
      "outputs": [
        {
          "internalType": "uint256",
          "name": "",
          "type": "uint256"
        }
      ],
      "stateMutability": "view",
      "type": "function"
    },
    {
      "inputs": [
        {
          "internalType": "address",
          "name": "spender",
          "type": "address"
        },
        {
          "internalType": "uint256",
          "name": "value",
          "type": "uint256"
        }
      ],
      "name": "approve",
      "outputs": [
        {
          "internalType": "bool",
          "name": "",
          "type": "bool"
        }
      ],
      "stateMutability": "nonpayable",
      "type": "function"
    },
    {
      "inputs": [
        {
          "internalType": "address",
          "name": "account",
          "type": "address"
        }
      ],
      "name": "balanceOf",
      "outputs": [
        {
          "internalType": "uint256",
          "name": "",
          "type": "uint256"
        }
      ],
      "stateMutability": "view",
      "type": "function"
    },
    {
      "inputs": [
        {
          "internalType": "uint256",
          "name": "amount",
          "type": "uint256"
        }
      ],
      "name": "burn",
      "outputs": [],
      "stateMutability": "nonpayable",
      "type": "function"
    },
    {
      "inputs": [],
      "name": "buyTokens",
      "outputs": [],
      "stateMutability": "payable",
      "type": "function"
    },
    {
      "inputs": [],
      "name": "decimals",
      "outputs": [
        {
          "internalType": "uint8",
          "name": "",
          "type": "uint8"
        }
      ],
      "stateMutability": "view",
      "type": "function"
    },
    {
      "inputs": [],
      "name": "getContractETHBalance",
      "outputs": [
        {
          "internalType": "uint256",
          "name": "",
          "type": "uint256"
        }
      ],
      "stateMutability": "view",
      "type": "function"
    },
    {
      "inputs": [],
      "name": "getContractTokenBalance",
      "outputs": [
        {
          "internalType": "uint256",
          "name": "",
          "type": "uint256"
        }
      ],
      "stateMutability": "view",
      "type": "function"
    },
    {
      "inputs": [
        {
          "internalType": "uint256",
          "name": "tokenAmount",
          "type": "uint256"
        }
      ],
      "name": "getETHRequired",
      "outputs": [
        {
          "internalType": "uint256",
          "name": "",
          "type": "uint256"
        }
      ],
      "stateMutability": "pure",
      "type": "function"
    },
    {
      "inputs": [
        {
          "internalType": "uint256",
          "name": "ethAmount",
          "type": "uint256"
        }
      ],
      "name": "getTokensForETH",
      "outputs": [
        {
          "internalType": "uint256",
          "name": "",
          "type": "uint256"
        }
      ],
      "stateMutability": "pure",
      "type": "function"
    },
    {
      "inputs": [
        {
          "internalType": "address",
          "name": "to",
          "type": "address"
        },
        {
          "internalType": "uint256",
          "name": "amount",
          "type": "uint256"
        }
      ],
      "name": "mint",
      "outputs": [],
      "stateMutability": "nonpayable",
      "type": "function"
    },
    {
      "inputs": [],
      "name": "name",
      "outputs": [
        {
          "internalType": "string",
          "name": "",
          "type": "string"
        }
      ],
      "stateMutability": "view",
      "type": "function"
    },
    {
      "inputs": [],
      "name": "owner",
      "outputs": [
        {
          "internalType": "address",
          "name": "",
          "type": "address"
        }
      ],
      "stateMutability": "view",
      "type": "function"
    },
    {
      "inputs": [],
      "name": "renounceOwnership",
      "outputs": [],
      "stateMutability": "nonpayable",
      "type": "function"
    },
    {
      "inputs": [
        {
          "internalType": "uint256",
          "name": "tokenAmount",
          "type": "uint256"
        }
      ],
      "name": "sellTokens",
      "outputs": [],
      "stateMutability": "nonpayable",
      "type": "function"
    },
    {
      "inputs": [],
      "name": "symbol",
      "outputs": [
        {
          "internalType": "string",
          "name": "",
          "type": "string"
        }
      ],
      "stateMutability": "view",
      "type": "function"
    },
    {
      "inputs": [],
      "name": "totalSupply",
      "outputs": [
        {
          "internalType": "uint256",
          "name": "",
          "type": "uint256"
        }
      ],
      "stateMutability": "view",
      "type": "function"
    },
    {
      "inputs": [
        {
          "internalType": "address",
          "name": "to",
          "type": "address"
        },
        {
          "internalType": "uint256",
          "name": "value",
          "type": "uint256"
        }
      ],
      "name": "transfer",
      "outputs": [
        {
          "internalType": "bool",
          "name": "",
          "type": "bool"
        }
      ],
      "stateMutability": "nonpayable",
      "type": "function"
    },
    {
      "inputs": [
        {
          "internalType": "address",
          "name": "from",
          "type": "address"
        },
        {
          "internalType": "address",
          "name": "to",
          "type": "address"
        },
        {
          "internalType": "uint256",
          "name": "value",
          "type": "uint256"
        }
      ],
      "name": "transferFrom",
      "outputs": [
        {
          "internalType": "bool",
          "name": "",
          "type": "bool"
        }
      ],
      "stateMutability": "nonpayable",
      "type": "function"
    },
    {
      "inputs": [
        {
          "internalType": "address",
          "name": "newOwner",
          "type": "address"
        }
      ],
      "name": "transferOwnership",
      "outputs": [],
      "stateMutability": "nonpayable",
      "type": "function"
    },
    {
      "inputs": [
        {
          "internalType": "uint256",
          "name": "amount",
          "type": "uint256"
        }
      ],
      "name": "withdrawETH",
      "outputs": [],
      "stateMutability": "nonpayable",
      "type": "function"
    },
    {
      "inputs": [
        {
          "internalType": "uint256",
          "name": "amount",
          "type": "uint256"
        }
      ],
      "name": "withdrawTokens",
      "outputs": [],
      "stateMutability": "nonpayable",
      "type": "function"
    },
    {
      "stateMutability": "payable",
      "type": "receive"
    }
  ],
  "bytecode": "0x608060405234801561000f575f5ffd5b5060408051808201825260038082526254545360e81b602080840182905284518086019095528285528401523392906100488382610319565b5060046100558282610319565b5050506001600160a01b03811661008657604051631e4fbdf760e01b81525f60048201526024015b60405180910390fd5b61008f816100d2565b506100b9306100b469d3c21bcecceda10000006b06765c793fa10079d00000006103e7565b610123565b6100cd3369d3c21bcecceda1000000610123565b610413565b600580546001600160a01b038381166001600160a01b0319831681179093556040519116919082907f8be0079c531659141344cd1fd0a4f28419497f9722a3daafe3b4186f6b6457e0905f90a35050565b6001600160a01b03821661014c5760405163ec442f0560e01b81525f600482015260240161007d565b6101575f838361015b565b5050565b6001600160a01b038316610185578060025f82825461017a9190610400565b909155506101f59050565b6001600160a01b0383165f90815260208190526040902054818110156101d75760405163391434e360e21b81526001600160a01b0385166004820152602481018290526044810183905260640161007d565b6001600160a01b0384165f9081526020819052604090209082900390555b6001600160a01b0382166102115760028054829003905561022f565b6001600160a01b0382165f9081526020819052604090208054820190555b816001600160a01b0316836001600160a01b03167fddf252ad1be2c89b69c2b068fc378daa952ba7f163c4a11628f55a4df523b3ef8360405161027491815260200190565b60405180910390a3505050565b634e487b7160e01b5f52604160045260245ffd5b600181811c908216806102a957607f821691505b6020821081036102c757634e487b7160e01b5f52602260045260245ffd5b50919050565b601f82111561031457805f5260205f20601f840160051c810160208510156102f25750805b601f840160051c820191505b81811015610311575f81556001016102fe565b50505b505050565b81516001600160401b0381111561033257610332610281565b610346816103408454610295565b846102cd565b6020601f821160018114610378575f83156103615750848201515b5f19600385901b1c1916600184901b178455610311565b5f84815260208120601f198516915b828110156103a75787850151825560209485019460019092019101610387565b50848210156103c457868401515f19600387901b60f8161c191681555b50505050600190811b01905550565b634e487b7160e01b5f52601160045260245ffd5b818103818111156103fa576103fa6103d3565b92915050565b808201808211156103fa576103fa6103d3565b611092806104205f395ff3fe608060405260043610610169575f3560e01c80636c11bcd3116100d0578063a9059cbb11610089578063d0febe4c11610063578063d0febe4c14610178578063dd62ed3e14610414578063f14210a614610458578063f2fde38b1461047757610178565b8063a9059cbb146103b7578063b5e19d23146103d6578063ca7df92c146103f557610178565b80636c11bcd31461030357806370a0823114610322578063715018a6146103565780638c89a0ad1461036a5780638da5cb5b1461037c57806395d89b41146103a357610178565b8063313ce56711610122578063313ce5671461024c578063315a095d14610267578063317d94531461028657806340c10f19146102a657806342966c68146102c557806349181a1b146102e457610178565b806306fdde0314610180578063095ea7b3146101aa5780630f484b8d146101d957806314a8bd0d1461020457806318160ddd1461021957806323b872dd1461022d57610178565b3661017857610176610496565b005b610176610496565b34801561018b575f5ffd5b50610194610580565b6040516101a19190610e9a565b60405180910390f35b3480156101b5575f5ffd5b506101c96101c4366004610eea565b610610565b60405190151581526020016101a1565b3480156101e4575f5ffd5b506101f669d3c21bcecceda100000081565b6040519081526020016101a1565b34801561020f575f5ffd5b506101f6614e2081565b348015610224575f5ffd5b506002546101f6565b348015610238575f5ffd5b506101c9610247366004610f12565b610629565b348015610257575f5ffd5b50604051601281526020016101a1565b348015610272575f5ffd5b50610176610281366004610f4c565b61064c565b348015610291575f5ffd5b50305f908152602081905260409020546101f6565b3480156102b1575f5ffd5b506101766102c0366004610eea565b6106d1565b3480156102d0575f5ffd5b506101766102df366004610f4c565b610778565b3480156102ef575f5ffd5b506101f66102fe366004610f4c565b610835565b34801561030e575f5ffd5b5061017661031d366004610f4c565b610842565b34801561032d575f5ffd5b506101f661033c366004610f63565b6001600160a01b03165f9081526020819052604090205490565b348015610361575f5ffd5b506101766109c8565b348015610375575f5ffd5b50476101f6565b348015610387575f5ffd5b506005546040516001600160a01b0390911681526020016101a1565b3480156103ae575f5ffd5b506101946109db565b3480156103c2575f5ffd5b506101c96103d1366004610eea565b6109ea565b3480156103e1575f5ffd5b506101f66103f0366004610f4c565b6109f7565b348015610400575f5ffd5b506101f66b06765c793fa10079d000000081565b34801561041f575f5ffd5b506101f661042e366004610f83565b6001600160a01b039182165f90815260016020908152604080832093909416825291909152205490565b348015610463575f5ffd5b50610176610472366004610f4c565b610a04565b348015610482575f5ffd5b50610176610491366004610f63565b610a97565b5f34116104ea5760405162461bcd60e51b815260206004820152601b60248201527f4d7573742073656e642045544820746f2062757920746f6b656e73000000000060448201526064015b60405180910390fd5b5f6104f7614e2034610fc8565b305f9081526020819052604090205490915081111561053757305f908152602081905260408120546105299083610fdf565b90506105353082610ad1565b505b610542303383610b05565b604080513481526020810183905233917f3ceffd410054fdaed44f598ff5c1fb450658778e2241892da4aa646979dee617910160405180910390a250565b60606003805461058f90610ff2565b80601f01602080910402602001604051908101604052809291908181526020018280546105bb90610ff2565b80156106065780601f106105dd57610100808354040283529160200191610606565b820191905f5260205f20905b8154815290600101906020018083116105e957829003601f168201915b5050505050905090565b5f3361061d818585610b67565b60019150505b92915050565b5f33610636858285610b74565b610641858585610b05565b506001949350505050565b610654610bf0565b305f908152602081905260409020548111156106b25760405162461bcd60e51b815260206004820152601a60248201527f496e73756666696369656e7420746f6b656e2062616c616e636500000000000060448201526064016104e1565b6106ce306106c86005546001600160a01b031690565b83610b05565b50565b6001600160a01b0382166107275760405162461bcd60e51b815260206004820152601b60248201527f43616e6e6f74206d696e7420746f207a65726f2061646472657373000000000060448201526064016104e1565b6107318282610ad1565b816001600160a01b03167f0f6798a560793a54c3bcfe86a93cde1e73087d944c0ea20544137d41213968858260405161076c91815260200190565b60405180910390a25050565b610780610bf0565b8061079661033c6005546001600160a01b031690565b10156107e45760405162461bcd60e51b815260206004820152601c60248201527f496e73756666696369656e742062616c616e636520746f206275726e0000000060448201526064016104e1565b6107ff6107f96005546001600160a01b031690565b82610c1d565b6040518181527fb90306ad06b2a6ff86ddc9327db583062895ef6540e62dc50add009db5b356eb9060200160405180910390a150565b5f610623614e208361102a565b5f811161089d5760405162461bcd60e51b815260206004820152602360248201527f546f6b656e20616d6f756e74206d75737420626520677265617465722074686160448201526206e20360ec1b60648201526084016104e1565b335f908152602081905260409020548111156108fb5760405162461bcd60e51b815260206004820152601a60248201527f496e73756666696369656e7420746f6b656e2062616c616e636500000000000060448201526064016104e1565b5f610908614e208361102a565b90508047101561095a5760405162461bcd60e51b815260206004820152601d60248201527f436f6e74726163742068617320696e73756666696369656e742045544800000060448201526064016104e1565b610965333084610b05565b604051339082156108fc029083905f818181858888f1935050505015801561098f573d5f5f3e3d5ffd5b50604080518381526020810183905233917f35ea94addbc62df281ade49cc2ad9b3d9259166170cf702928b4ddc045f7256e910161076c565b6109d0610bf0565b6109d95f610c51565b565b60606004805461058f90610ff2565b5f3361061d818585610b05565b5f610623614e2083610fc8565b610a0c610bf0565b80471015610a5c5760405162461bcd60e51b815260206004820152601860248201527f496e73756666696369656e74204554482062616c616e6365000000000000000060448201526064016104e1565b6005546040516001600160a01b039091169082156108fc029083905f818181858888f19350505050158015610a93573d5f5f3e3d5ffd5b5050565b610a9f610bf0565b6001600160a01b038116610ac857604051631e4fbdf760e01b81525f60048201526024016104e1565b6106ce81610c51565b6001600160a01b038216610afa5760405163ec442f0560e01b81525f60048201526024016104e1565b610a935f8383610ca2565b6001600160a01b038316610b2e57604051634b637e8f60e11b81525f60048201526024016104e1565b6001600160a01b038216610b575760405163ec442f0560e01b81525f60048201526024016104e1565b610b62838383610ca2565b505050565b610b628383836001610dc8565b6001600160a01b038381165f908152600160209081526040808320938616835292905220545f19811015610bea5781811015610bdc57604051637dc7a0d960e11b81526001600160a01b038416600482015260248101829052604481018390526064016104e1565b610bea84848484035f610dc8565b50505050565b6005546001600160a01b031633146109d95760405163118cdaa760e01b81523360048201526024016104e1565b6001600160a01b038216610c4657604051634b637e8f60e11b81525f60048201526024016104e1565b610a93825f83610ca2565b600580546001600160a01b038381166001600160a01b0319831681179093556040519116919082907f8be0079c531659141344cd1fd0a4f28419497f9722a3daafe3b4186f6b6457e0905f90a35050565b6001600160a01b038316610ccc578060025f828254610cc19190611049565b90915550610d3c9050565b6001600160a01b0383165f9081526020819052604090205481811015610d1e5760405163391434e360e21b81526001600160a01b038516600482015260248101829052604481018390526064016104e1565b6001600160a01b0384165f9081526020819052604090209082900390555b6001600160a01b038216610d5857600280548290039055610d76565b6001600160a01b0382165f9081526020819052604090208054820190555b816001600160a01b0316836001600160a01b03167fddf252ad1be2c89b69c2b068fc378daa952ba7f163c4a11628f55a4df523b3ef83604051610dbb91815260200190565b60405180910390a3505050565b6001600160a01b038416610df15760405163e602df0560e01b81525f60048201526024016104e1565b6001600160a01b038316610e1a57604051634a1406b160e11b81525f60048201526024016104e1565b6001600160a01b038085165f9081526001602090815260408083209387168352929052208290558015610bea57826001600160a01b0316846001600160a01b03167f8c5be1e5ebec7d5bd14f71427d1e84f3dd0314c0f7b2291e5b200ac8c7c3b92584604051610e8c91815260200190565b60405180910390a350505050565b602081525f82518060208401528060208501604085015e5f604082850101526040601f19601f83011684010191505092915050565b80356001600160a01b0381168114610ee5575f5ffd5b919050565b5f5f60408385031215610efb575f5ffd5b610f0483610ecf565b946020939093013593505050565b5f5f5f60608486031215610f24575f5ffd5b610f2d84610ecf565b9250610f3b60208501610ecf565b929592945050506040919091013590565b5f60208284031215610f5c575f5ffd5b5035919050565b5f60208284031215610f73575f5ffd5b610f7c82610ecf565b9392505050565b5f5f60408385031215610f94575f5ffd5b610f9d83610ecf565b9150610fab60208401610ecf565b90509250929050565b634e487b7160e01b5f52601160045260245ffd5b808202811582820484141761062357610623610fb4565b8181038181111561062357610623610fb4565b600181811c9082168061100657607f821691505b60208210810361102457634e487b7160e01b5f52602260045260245ffd5b50919050565b5f8261104457634e487b7160e01b5f52601260045260245ffd5b500490565b8082018082111561062357610623610fb456fea2646970667358221220ed40242cb48d1eb9708fa14f11d87ff4a4b03da8b89435edae088d28c5d9b83264736f6c634300081c0033",
  "linkReferences": {},
  "deployedLinkReferences": {},
  "immutableReferences": {},
  "inputSourceName": "project/contracts/RealTTS.sol",
  "buildInfoId": "solc-0_8_28-25c2d2123011a61fa144eee1386366afa78095f6"
}